{
  "_format": "hh-sol-artifact-1",
  "contractName": "Adesso",
  "sourceName": "contracts/Adesso.sol",
  "abi": [
    {
      "inputs": [],
      "stateMutability": "nonpayable",
      "type": "constructor"
    },
    {
      "anonymous": false,
      "inputs": [
        {
          "indexed": true,
          "internalType": "address",
          "name": "owner",
          "type": "address"
        },
        {
          "indexed": true,
          "internalType": "address",
          "name": "approved",
          "type": "address"
        },
        {
          "indexed": true,
          "internalType": "uint256",
          "name": "tokenId",
          "type": "uint256"
        }
      ],
      "name": "Approval",
      "type": "event"
    },
    {
      "anonymous": false,
      "inputs": [
        {
          "indexed": true,
          "internalType": "address",
          "name": "owner",
          "type": "address"
        },
        {
          "indexed": true,
          "internalType": "address",
          "name": "operator",
          "type": "address"
        },
        {
          "indexed": false,
          "internalType": "bool",
          "name": "approved",
          "type": "bool"
        }
      ],
      "name": "ApprovalForAll",
      "type": "event"
    },
    {
      "anonymous": false,
      "inputs": [
        {
          "indexed": true,
          "internalType": "address",
          "name": "previousOwner",
          "type": "address"
        },
        {
          "indexed": true,
          "internalType": "address",
          "name": "newOwner",
          "type": "address"
        }
      ],
      "name": "OwnershipTransferred",
      "type": "event"
    },
    {
      "anonymous": false,
      "inputs": [
        {
          "indexed": true,
          "internalType": "address",
          "name": "from",
          "type": "address"
        },
        {
          "indexed": true,
          "internalType": "address",
          "name": "to",
          "type": "address"
        },
        {
          "indexed": true,
          "internalType": "uint256",
          "name": "tokenId",
          "type": "uint256"
        }
      ],
      "name": "Transfer",
      "type": "event"
    },
    {
      "inputs": [
        {
          "internalType": "address",
          "name": "to",
          "type": "address"
        },
        {
          "internalType": "uint256",
          "name": "tokenId",
          "type": "uint256"
        }
      ],
      "name": "approve",
      "outputs": [],
      "stateMutability": "nonpayable",
      "type": "function"
    },
    {
      "inputs": [
        {
          "internalType": "address",
          "name": "owner",
          "type": "address"
        }
      ],
      "name": "balanceOf",
      "outputs": [
        {
          "internalType": "uint256",
          "name": "",
          "type": "uint256"
        }
      ],
      "stateMutability": "view",
      "type": "function"
    },
    {
      "inputs": [
        {
          "internalType": "uint256",
          "name": "tokenId",
          "type": "uint256"
        }
      ],
      "name": "getApproved",
      "outputs": [
        {
          "internalType": "address",
          "name": "",
          "type": "address"
        }
      ],
      "stateMutability": "view",
      "type": "function"
    },
    {
      "inputs": [
        {
          "internalType": "address",
          "name": "owner",
          "type": "address"
        },
        {
          "internalType": "address",
          "name": "operator",
          "type": "address"
        }
      ],
      "name": "isApprovedForAll",
      "outputs": [
        {
          "internalType": "bool",
          "name": "",
          "type": "bool"
        }
      ],
      "stateMutability": "view",
      "type": "function"
    },
    {
      "inputs": [],
      "name": "maxPerWallet",
      "outputs": [
        {
          "internalType": "uint256",
          "name": "",
          "type": "uint256"
        }
      ],
      "stateMutability": "view",
      "type": "function"
    },
    {
      "inputs": [],
      "name": "maxSupply",
      "outputs": [
        {
          "internalType": "uint256",
          "name": "",
          "type": "uint256"
        }
      ],
      "stateMutability": "view",
      "type": "function"
    },
    {
      "inputs": [
        {
          "internalType": "uint256",
          "name": "_quantity",
          "type": "uint256"
        }
      ],
      "name": "mint",
      "outputs": [],
      "stateMutability": "payable",
      "type": "function"
    },
    {
      "inputs": [],
      "name": "mintPrice",
      "outputs": [
        {
          "internalType": "uint256",
          "name": "",
          "type": "uint256"
        }
      ],
      "stateMutability": "view",
      "type": "function"
    },
    {
      "inputs": [],
      "name": "name",
      "outputs": [
        {
          "internalType": "string",
          "name": "",
          "type": "string"
        }
      ],
      "stateMutability": "view",
      "type": "function"
    },
    {
      "inputs": [],
      "name": "owner",
      "outputs": [
        {
          "internalType": "address",
          "name": "",
          "type": "address"
        }
      ],
      "stateMutability": "view",
      "type": "function"
    },
    {
      "inputs": [
        {
          "internalType": "uint256",
          "name": "tokenId",
          "type": "uint256"
        }
      ],
      "name": "ownerOf",
      "outputs": [
        {
          "internalType": "address",
          "name": "",
          "type": "address"
        }
      ],
      "stateMutability": "view",
      "type": "function"
    },
    {
      "inputs": [],
      "name": "renounceOwnership",
      "outputs": [],
      "stateMutability": "nonpayable",
      "type": "function"
    },
    {
      "inputs": [
        {
          "internalType": "address",
          "name": "from",
          "type": "address"
        },
        {
          "internalType": "address",
          "name": "to",
          "type": "address"
        },
        {
          "internalType": "uint256",
          "name": "tokenId",
          "type": "uint256"
        }
      ],
      "name": "safeTransferFrom",
      "outputs": [],
      "stateMutability": "nonpayable",
      "type": "function"
    },
    {
      "inputs": [
        {
          "internalType": "address",
          "name": "from",
          "type": "address"
        },
        {
          "internalType": "address",
          "name": "to",
          "type": "address"
        },
        {
          "internalType": "uint256",
          "name": "tokenId",
          "type": "uint256"
        },
        {
          "internalType": "bytes",
          "name": "data",
          "type": "bytes"
        }
      ],
      "name": "safeTransferFrom",
      "outputs": [],
      "stateMutability": "nonpayable",
      "type": "function"
    },
    {
      "inputs": [
        {
          "internalType": "address",
          "name": "operator",
          "type": "address"
        },
        {
          "internalType": "bool",
          "name": "approved",
          "type": "bool"
        }
      ],
      "name": "setApprovalForAll",
      "outputs": [],
      "stateMutability": "nonpayable",
      "type": "function"
    },
    {
      "inputs": [
        {
          "internalType": "string",
          "name": "_baseTokenUri",
          "type": "string"
        }
      ],
      "name": "setBaseTokenUri",
      "outputs": [],
      "stateMutability": "nonpayable",
      "type": "function"
    },
    {
      "inputs": [
        {
          "internalType": "bytes4",
          "name": "interfaceId",
          "type": "bytes4"
        }
      ],
      "name": "supportsInterface",
      "outputs": [
        {
          "internalType": "bool",
          "name": "",
          "type": "bool"
        }
      ],
      "stateMutability": "view",
      "type": "function"
    },
    {
      "inputs": [],
      "name": "symbol",
      "outputs": [
        {
          "internalType": "string",
          "name": "",
          "type": "string"
        }
      ],
      "stateMutability": "view",
      "type": "function"
    },
    {
      "inputs": [
        {
          "internalType": "uint256",
          "name": "index",
          "type": "uint256"
        }
      ],
      "name": "tokenByIndex",
      "outputs": [
        {
          "internalType": "uint256",
          "name": "",
          "type": "uint256"
        }
      ],
      "stateMutability": "view",
      "type": "function"
    },
    {
      "inputs": [
        {
          "internalType": "address",
          "name": "owner",
          "type": "address"
        },
        {
          "internalType": "uint256",
          "name": "index",
          "type": "uint256"
        }
      ],
      "name": "tokenOfOwnerByIndex",
      "outputs": [
        {
          "internalType": "uint256",
          "name": "",
          "type": "uint256"
        }
      ],
      "stateMutability": "view",
      "type": "function"
    },
    {
      "inputs": [
        {
          "internalType": "uint256",
          "name": "_tokenId",
          "type": "uint256"
        }
      ],
      "name": "tokenURI",
      "outputs": [
        {
          "internalType": "string",
          "name": "",
          "type": "string"
        }
      ],
      "stateMutability": "view",
      "type": "function"
    },
    {
      "inputs": [
        {
          "internalType": "address",
          "name": "_owner",
          "type": "address"
        }
      ],
      "name": "tokensOfOwner",
      "outputs": [
        {
          "internalType": "uint256[]",
          "name": "",
          "type": "uint256[]"
        }
      ],
      "stateMutability": "view",
      "type": "function"
    },
    {
      "inputs": [],
      "name": "totalSupply",
      "outputs": [
        {
          "internalType": "uint256",
          "name": "",
          "type": "uint256"
        }
      ],
      "stateMutability": "view",
      "type": "function"
    },
    {
      "inputs": [
        {
          "internalType": "address",
          "name": "from",
          "type": "address"
        },
        {
          "internalType": "address",
          "name": "to",
          "type": "address"
        },
        {
          "internalType": "uint256",
          "name": "tokenId",
          "type": "uint256"
        }
      ],
      "name": "transferFrom",
      "outputs": [],
      "stateMutability": "nonpayable",
      "type": "function"
    },
    {
      "inputs": [
        {
          "internalType": "address",
          "name": "newOwner",
          "type": "address"
        }
      ],
      "name": "transferOwnership",
      "outputs": [],
      "stateMutability": "nonpayable",
      "type": "function"
    },
    {
      "inputs": [
        {
          "internalType": "address",
          "name": "",
          "type": "address"
        }
      ],
      "name": "walletMints",
      "outputs": [
        {
          "internalType": "uint256",
          "name": "",
          "type": "uint256"
        }
      ],
      "stateMutability": "view",
      "type": "function"
    },
    {
      "inputs": [],
      "name": "withdraw",
      "outputs": [],
      "stateMutability": "nonpayable",
      "type": "function"
    },
    {
      "inputs": [],
      "name": "withdrawWallet",
      "outputs": [
        {
          "internalType": "address payable",
          "name": "",
          "type": "address"
        }
      ],
      "stateMutability": "view",
      "type": "function"
    }
  ],
  "bytecode": "0x608060405234801562000010575f80fd5b506040518060400160405280600981526020017f41646573736f4e465400000000000000000000000000000000000000000000008152506040518060400160405280600381526020017f4144530000000000000000000000000000000000000000000000000000000000815250815f90816200008d919062000414565b5080600190816200009f919062000414565b505050620000c2620000b6620000e660201b60201c565b620000ed60201b60201c565b662386f26fc10000600b819055506064600c819055506005600d81905550620004f8565b5f33905090565b5f60065f9054906101000a900473ffffffffffffffffffffffffffffffffffffffff1690508160065f6101000a81548173ffffffffffffffffffffffffffffffffffffffff021916908373ffffffffffffffffffffffffffffffffffffffff1602179055508173ffffffffffffffffffffffffffffffffffffffff168173ffffffffffffffffffffffffffffffffffffffff167f8be0079c531659141344cd1fd0a4f28419497f9722a3daafe3b4186f6b6457e060405160405180910390a35050565b5f81519050919050565b7f4e487b71000000000000000000000000000000000000000000000000000000005f52604160045260245ffd5b7f4e487b71000000000000000000000000000000000000000000000000000000005f52602260045260245ffd5b5f60028204905060018216806200022c57607f821691505b602082108103620002425762000241620001e7565b5b50919050565b5f819050815f5260205f209050919050565b5f6020601f8301049050919050565b5f82821b905092915050565b5f60088302620002a67fffffffffffffffffffffffffffffffffffffffffffffffffffffffffffffffff8262000269565b620002b2868362000269565b95508019841693508086168417925050509392505050565b5f819050919050565b5f819050919050565b5f620002fc620002f6620002f084620002ca565b620002d3565b620002ca565b9050919050565b5f819050919050565b6200031783620002dc565b6200032f620003268262000303565b84845462000275565b825550505050565b5f90565b6200034562000337565b620003528184846200030c565b505050565b5b8181101562000379576200036d5f826200033b565b60018101905062000358565b5050565b601f821115620003c857620003928162000248565b6200039d846200025a565b81016020851015620003ad578190505b620003c5620003bc856200025a565b83018262000357565b50505b505050565b5f82821c905092915050565b5f620003ea5f1984600802620003cd565b1980831691505092915050565b5f620004048383620003d9565b9150826002028217905092915050565b6200041f82620001b0565b67ffffffffffffffff8111156200043b576200043a620001ba565b5b62000447825462000214565b620004548282856200037d565b5f60209050601f8311600181146200048a575f841562000475578287015190505b620004818582620003f7565b865550620004f0565b601f1984166200049a8662000248565b5f5b82811015620004c3578489015182556001820191506020850194506020810190506200049c565b86831015620004e35784890151620004df601f891682620003d9565b8355505b6001600288020188555050505b505050505050565b613f8080620005065f395ff3fe6080604052600436106101b6575f3560e01c8063715018a6116100eb578063a22cb46511610089578063d5abeb0111610063578063d5abeb01146105f8578063e985e9c514610622578063f0293fd31461065e578063f2fde38b1461069a576101b6565b8063a22cb4651461056c578063b88d4fde14610594578063c87b56dd146105bc576101b6565b80638da5cb5b116100c55780638da5cb5b146104d457806395652cfa146104fe57806395d89b4114610526578063a0712d6814610550576101b6565b8063715018a6146104585780638462151c1461046e57806385d178f4146104aa576101b6565b80633ccfd60b116101585780634f6ccce7116101325780634f6ccce71461037a5780636352211e146103b65780636817c76c146103f257806370a082311461041c576101b6565b80633ccfd60b1461031257806342842e0e14610328578063453c231014610350576101b6565b8063095ea7b311610194578063095ea7b31461025c57806318160ddd1461028457806323b872dd146102ae5780632f745c59146102d6576101b6565b806301ffc9a7146101ba57806306fdde03146101f6578063081812fc14610220575b5f80fd5b3480156101c5575f80fd5b506101e060048036038101906101db919061278c565b6106c2565b6040516101ed91906127d1565b60405180910390f35b348015610201575f80fd5b5061020a6106d3565b6040516102179190612874565b60405180910390f35b34801561022b575f80fd5b50610246600480360381019061024191906128c7565b610762565b6040516102539190612931565b60405180910390f35b348015610267575f80fd5b50610282600480360381019061027d9190612974565b6107a4565b005b34801561028f575f80fd5b506102986108ba565b6040516102a591906129c1565b60405180910390f35b3480156102b9575f80fd5b506102d460048036038101906102cf91906129da565b6108c6565b005b3480156102e1575f80fd5b506102fc60048036038101906102f79190612974565b61092a565b60405161030991906129c1565b60405180910390f35b34801561031d575f80fd5b506103266109ca565b005b348015610333575f80fd5b5061034e600480360381019061034991906129da565b610a9e565b005b34801561035b575f80fd5b50610364610abd565b60405161037191906129c1565b60405180910390f35b348015610385575f80fd5b506103a0600480360381019061039b91906128c7565b610ac3565b6040516103ad91906129c1565b60405180910390f35b3480156103c1575f80fd5b506103dc60048036038101906103d791906128c7565b610b31565b6040516103e99190612931565b60405180910390f35b3480156103fd575f80fd5b50610406610bb5565b60405161041391906129c1565b60405180910390f35b348015610427575f80fd5b50610442600480360381019061043d9190612a2a565b610bbb565b60405161044f91906129c1565b60405180910390f35b348015610463575f80fd5b5061046c610c6f565b005b348015610479575f80fd5b50610494600480360381019061048f9190612a2a565b610c82565b6040516104a19190612b0c565b60405180910390f35b3480156104b5575f80fd5b506104be610d86565b6040516104cb9190612b4c565b60405180910390f35b3480156104df575f80fd5b506104e8610dab565b6040516104f59190612931565b60405180910390f35b348015610509575f80fd5b50610524600480360381019061051f9190612bc6565b610dd3565b005b348015610531575f80fd5b5061053a610df1565b6040516105479190612874565b60405180910390f35b61056a600480360381019061056591906128c7565b610e81565b005b348015610577575f80fd5b50610592600480360381019061058d9190612c3b565b61104b565b005b34801561059f575f80fd5b506105ba60048036038101906105b59190612da1565b611061565b005b3480156105c7575f80fd5b506105e260048036038101906105dd91906128c7565b6110c3565b6040516105ef9190612874565b60405180910390f35b348015610603575f80fd5b5061060c61113f565b60405161061991906129c1565b60405180910390f35b34801561062d575f80fd5b5061064860048036038101906106439190612e21565b611145565b60405161065591906127d1565b60405180910390f35b348015610669575f80fd5b50610684600480360381019061067f9190612a2a565b6111d3565b60405161069191906129c1565b60405180910390f35b3480156106a5575f80fd5b506106c060048036038101906106bb9190612a2a565b6111e8565b005b5f6106cc8261126a565b9050919050565b60605f80546106e190612e8c565b80601f016020809104026020016040519081016040528092919081815260200182805461070d90612e8c565b80156107585780601f1061072f57610100808354040283529160200191610758565b820191905f5260205f20905b81548152906001019060200180831161073b57829003601f168201915b5050505050905090565b5f61076c826112e3565b60045f8381526020019081526020015f205f9054906101000a900473ffffffffffffffffffffffffffffffffffffffff169050919050565b5f6107ae82610b31565b90508073ffffffffffffffffffffffffffffffffffffffff168373ffffffffffffffffffffffffffffffffffffffff160361081e576040517f08c379a000000000000000000000000000000000000000000000000000000000815260040161081590612f2c565b60405180910390fd5b8073ffffffffffffffffffffffffffffffffffffffff1661083d61132e565b73ffffffffffffffffffffffffffffffffffffffff16148061086c575061086b8161086661132e565b611145565b5b6108ab576040517f08c379a00000000000000000000000000000000000000000000000000000000081526004016108a290612fba565b60405180910390fd5b6108b58383611335565b505050565b5f600980549050905090565b600160105f3373ffffffffffffffffffffffffffffffffffffffff1673ffffffffffffffffffffffffffffffffffffffff1681526020019081526020015f205f8282546109139190613005565b925050819055506109258383836113eb565b505050565b5f61093483610bbb565b8210610975576040517f08c379a000000000000000000000000000000000000000000000000000000000815260040161096c906130a8565b60405180910390fd5b60075f8473ffffffffffffffffffffffffffffffffffffffff1673ffffffffffffffffffffffffffffffffffffffff1681526020019081526020015f205f8381526020019081526020015f2054905092915050565b6109d261144b565b5f600f5f9054906101000a900473ffffffffffffffffffffffffffffffffffffffff1673ffffffffffffffffffffffffffffffffffffffff1647604051610a18906130f3565b5f6040518083038185875af1925050503d805f8114610a52576040519150601f19603f3d011682016040523d82523d5f602084013e610a57565b606091505b5050905080610a9b576040517f08c379a0000000000000000000000000000000000000000000000000000000008152600401610a9290613151565b60405180910390fd5b50565b610ab883838360405180602001604052805f815250611061565b505050565b600d5481565b5f610acc6108ba565b8210610b0d576040517f08c379a0000000000000000000000000000000000000000000000000000000008152600401610b04906131df565b60405180910390fd5b60098281548110610b2157610b206131fd565b5b905f5260205f2001549050919050565b5f80610b3c836114c9565b90505f73ffffffffffffffffffffffffffffffffffffffff168173ffffffffffffffffffffffffffffffffffffffff1603610bac576040517f08c379a0000000000000000000000000000000000000000000000000000000008152600401610ba390613274565b60405180910390fd5b80915050919050565b600b5481565b5f8073ffffffffffffffffffffffffffffffffffffffff168273ffffffffffffffffffffffffffffffffffffffff1603610c2a576040517f08c379a0000000000000000000000000000000000000000000000000000000008152600401610c2190613302565b60405180910390fd5b60035f8373ffffffffffffffffffffffffffffffffffffffff1673ffffffffffffffffffffffffffffffffffffffff1681526020019081526020015f20549050919050565b610c7761144b565b610c805f611502565b565b60605f610c8e83610bbb565b90505f8111610ce8575f67ffffffffffffffff811115610cb157610cb0612c7d565b5b604051908082528060200260200182016040528015610cdf5781602001602082028036833780820191505090505b50915050610d81565b5f8167ffffffffffffffff811115610d0357610d02612c7d565b5b604051908082528060200260200182016040528015610d315781602001602082028036833780820191505090505b5090505f5b82811015610d7a57610d48858261092a565b828281518110610d5b57610d5a6131fd565b5b6020026020010181815250508080610d7290613320565b915050610d36565b5080925050505b919050565b600f5f9054906101000a900473ffffffffffffffffffffffffffffffffffffffff1681565b5f60065f9054906101000a900473ffffffffffffffffffffffffffffffffffffffff16905090565b610ddb61144b565b8181600e9182610dec92919061350e565b505050565b606060018054610e0090612e8c565b80601f0160208091040260200160405190810160405280929190818152602001828054610e2c90612e8c565b8015610e775780601f10610e4e57610100808354040283529160200191610e77565b820191905f5260205f20905b815481529060010190602001808311610e5a57829003601f168201915b5050505050905090565b600b5481610e8f91906135db565b3414610ed0576040517f08c379a0000000000000000000000000000000000000000000000000000000008152600401610ec790613666565b60405180910390fd5b600c5481610edc6108ba565b610ee69190613684565b1115610f27576040517f08c379a0000000000000000000000000000000000000000000000000000000008152600401610f1e90613701565b60405180910390fd5b600d548160105f3373ffffffffffffffffffffffffffffffffffffffff1673ffffffffffffffffffffffffffffffffffffffff1681526020019081526020015f2054610f739190613684565b1115610fb4576040517f08c379a0000000000000000000000000000000000000000000000000000000008152600401610fab90613769565b60405180910390fd5b5f5b81811015611047575f6001610fc96108ba565b610fd39190613684565b9050610fdf33826115c5565b600160105f3373ffffffffffffffffffffffffffffffffffffffff1673ffffffffffffffffffffffffffffffffffffffff1681526020019081526020015f205f82825461102c9190613684565b9250508190555050808061103f90613320565b915050610fb6565b5050565b61105d61105661132e565b83836115e2565b5050565b61107261106c61132e565b83611749565b6110b1576040517f08c379a00000000000000000000000000000000000000000000000000000000081526004016110a8906137f7565b60405180910390fd5b6110bd848484846117dd565b50505050565b60606110ce82611839565b61110d576040517f08c379a00000000000000000000000000000000000000000000000000000000081526004016111049061385f565b60405180910390fd5b600e61111883611879565b604051602001611129929190613981565b6040516020818303038152906040529050919050565b600c5481565b5f60055f8473ffffffffffffffffffffffffffffffffffffffff1673ffffffffffffffffffffffffffffffffffffffff1681526020019081526020015f205f8373ffffffffffffffffffffffffffffffffffffffff1673ffffffffffffffffffffffffffffffffffffffff1681526020019081526020015f205f9054906101000a900460ff16905092915050565b6010602052805f5260405f205f915090505481565b6111f061144b565b5f73ffffffffffffffffffffffffffffffffffffffff168173ffffffffffffffffffffffffffffffffffffffff160361125e576040517f08c379a000000000000000000000000000000000000000000000000000000000815260040161125590613a1f565b60405180910390fd5b61126781611502565b50565b5f7f780e9d63000000000000000000000000000000000000000000000000000000007bffffffffffffffffffffffffffffffffffffffffffffffffffffffff1916827bffffffffffffffffffffffffffffffffffffffffffffffffffffffff191614806112dc57506112db82611943565b5b9050919050565b6112ec81611839565b61132b576040517f08c379a000000000000000000000000000000000000000000000000000000000815260040161132290613274565b60405180910390fd5b50565b5f33905090565b8160045f8381526020019081526020015f205f6101000a81548173ffffffffffffffffffffffffffffffffffffffff021916908373ffffffffffffffffffffffffffffffffffffffff160217905550808273ffffffffffffffffffffffffffffffffffffffff166113a583610b31565b73ffffffffffffffffffffffffffffffffffffffff167f8c5be1e5ebec7d5bd14f71427d1e84f3dd0314c0f7b2291e5b200ac8c7c3b92560405160405180910390a45050565b6113fc6113f661132e565b82611749565b61143b576040517f08c379a0000000000000000000000000000000000000000000000000000000008152600401611432906137f7565b60405180910390fd5b611446838383611a24565b505050565b61145361132e565b73ffffffffffffffffffffffffffffffffffffffff16611471610dab565b73ffffffffffffffffffffffffffffffffffffffff16146114c7576040517f08c379a00000000000000000000000000000000000000000000000000000000081526004016114be90613a87565b60405180910390fd5b565b5f60025f8381526020019081526020015f205f9054906101000a900473ffffffffffffffffffffffffffffffffffffffff169050919050565b5f60065f9054906101000a900473ffffffffffffffffffffffffffffffffffffffff1690508160065f6101000a81548173ffffffffffffffffffffffffffffffffffffffff021916908373ffffffffffffffffffffffffffffffffffffffff1602179055508173ffffffffffffffffffffffffffffffffffffffff168173ffffffffffffffffffffffffffffffffffffffff167f8be0079c531659141344cd1fd0a4f28419497f9722a3daafe3b4186f6b6457e060405160405180910390a35050565b6115de828260405180602001604052805f815250611d10565b5050565b8173ffffffffffffffffffffffffffffffffffffffff168373ffffffffffffffffffffffffffffffffffffffff1603611650576040517f08c379a000000000000000000000000000000000000000000000000000000000815260040161164790613aef565b60405180910390fd5b8060055f8573ffffffffffffffffffffffffffffffffffffffff1673ffffffffffffffffffffffffffffffffffffffff1681526020019081526020015f205f8473ffffffffffffffffffffffffffffffffffffffff1673ffffffffffffffffffffffffffffffffffffffff1681526020019081526020015f205f6101000a81548160ff0219169083151502179055508173ffffffffffffffffffffffffffffffffffffffff168373ffffffffffffffffffffffffffffffffffffffff167f17307eab39ab6107e8899845ad3d59bd9653f200f220920489ca2b5937696c318360405161173c91906127d1565b60405180910390a3505050565b5f8061175483610b31565b90508073ffffffffffffffffffffffffffffffffffffffff168473ffffffffffffffffffffffffffffffffffffffff16148061179657506117958185611145565b5b806117d457508373ffffffffffffffffffffffffffffffffffffffff166117bc84610762565b73ffffffffffffffffffffffffffffffffffffffff16145b91505092915050565b6117e8848484611a24565b6117f484848484611d6a565b611833576040517f08c379a000000000000000000000000000000000000000000000000000000000815260040161182a90613b7d565b60405180910390fd5b50505050565b5f8073ffffffffffffffffffffffffffffffffffffffff1661185a836114c9565b73ffffffffffffffffffffffffffffffffffffffff1614159050919050565b60605f600161188784611eec565b0190505f8167ffffffffffffffff8111156118a5576118a4612c7d565b5b6040519080825280601f01601f1916602001820160405280156118d75781602001600182028036833780820191505090505b5090505f82602001820190505b600115611938578080600190039150507f3031323334353637383961626364656600000000000000000000000000000000600a86061a8153600a858161192d5761192c613b9b565b5b0494505f85036118e4575b819350505050919050565b5f7f80ac58cd000000000000000000000000000000000000000000000000000000007bffffffffffffffffffffffffffffffffffffffffffffffffffffffff1916827bffffffffffffffffffffffffffffffffffffffffffffffffffffffff19161480611a0d57507f5b5e139f000000000000000000000000000000000000000000000000000000007bffffffffffffffffffffffffffffffffffffffffffffffffffffffff1916827bffffffffffffffffffffffffffffffffffffffffffffffffffffffff1916145b80611a1d5750611a1c8261203d565b5b9050919050565b8273ffffffffffffffffffffffffffffffffffffffff16611a4482610b31565b73ffffffffffffffffffffffffffffffffffffffff1614611a9a576040517f08c379a0000000000000000000000000000000000000000000000000000000008152600401611a9190613c38565b60405180910390fd5b5f73ffffffffffffffffffffffffffffffffffffffff168273ffffffffffffffffffffffffffffffffffffffff1603611b08576040517f08c379a0000000000000000000000000000000000000000000000000000000008152600401611aff90613cc6565b60405180910390fd5b611b1583838360016120a6565b8273ffffffffffffffffffffffffffffffffffffffff16611b3582610b31565b73ffffffffffffffffffffffffffffffffffffffff1614611b8b576040517f08c379a0000000000000000000000000000000000000000000000000000000008152600401611b8290613c38565b60405180910390fd5b60045f8281526020019081526020015f205f6101000a81549073ffffffffffffffffffffffffffffffffffffffff0219169055600160035f8573ffffffffffffffffffffffffffffffffffffffff1673ffffffffffffffffffffffffffffffffffffffff1681526020019081526020015f205f8282540392505081905550600160035f8473ffffffffffffffffffffffffffffffffffffffff1673ffffffffffffffffffffffffffffffffffffffff1681526020019081526020015f205f82825401925050819055508160025f8381526020019081526020015f205f6101000a81548173ffffffffffffffffffffffffffffffffffffffff021916908373ffffffffffffffffffffffffffffffffffffffff160217905550808273ffffffffffffffffffffffffffffffffffffffff168473ffffffffffffffffffffffffffffffffffffffff167fddf252ad1be2c89b69c2b068fc378daa952ba7f163c4a11628f55a4df523b3ef60405160405180910390a4611d0b83838360016120b8565b505050565b611d1a83836120be565b611d265f848484611d6a565b611d65576040517f08c379a0000000000000000000000000000000000000000000000000000000008152600401611d5c90613b7d565b60405180910390fd5b505050565b5f611d8a8473ffffffffffffffffffffffffffffffffffffffff166122d1565b15611edf578373ffffffffffffffffffffffffffffffffffffffff1663150b7a02611db361132e565b8786866040518563ffffffff1660e01b8152600401611dd59493929190613d36565b6020604051808303815f875af1925050508015611e1057506040513d601f19601f82011682018060405250810190611e0d9190613d94565b60015b611e8f573d805f8114611e3e576040519150601f19603f3d011682016040523d82523d5f602084013e611e43565b606091505b505f815103611e87576040517f08c379a0000000000000000000000000000000000000000000000000000000008152600401611e7e90613b7d565b60405180910390fd5b805181602001fd5b63150b7a0260e01b7bffffffffffffffffffffffffffffffffffffffffffffffffffffffff1916817bffffffffffffffffffffffffffffffffffffffffffffffffffffffff191614915050611ee4565b600190505b949350505050565b5f805f90507a184f03e93ff9f4daa797ed6e38ed64bf6a1f0100000000000000008310611f48577a184f03e93ff9f4daa797ed6e38ed64bf6a1f0100000000000000008381611f3e57611f3d613b9b565b5b0492506040810190505b6d04ee2d6d415b85acef81000000008310611f85576d04ee2d6d415b85acef81000000008381611f7b57611f7a613b9b565b5b0492506020810190505b662386f26fc100008310611fb457662386f26fc100008381611faa57611fa9613b9b565b5b0492506010810190505b6305f5e1008310611fdd576305f5e1008381611fd357611fd2613b9b565b5b0492506008810190505b6127108310612002576127108381611ff857611ff7613b9b565b5b0492506004810190505b60648310612025576064838161201b5761201a613b9b565b5b0492506002810190505b600a8310612034576001810190505b80915050919050565b5f7f01ffc9a7000000000000000000000000000000000000000000000000000000007bffffffffffffffffffffffffffffffffffffffffffffffffffffffff1916827bffffffffffffffffffffffffffffffffffffffffffffffffffffffff1916149050919050565b6120b2848484846122f3565b50505050565b50505050565b5f73ffffffffffffffffffffffffffffffffffffffff168273ffffffffffffffffffffffffffffffffffffffff160361212c576040517f08c379a000000000000000000000000000000000000000000000000000000000815260040161212390613e09565b60405180910390fd5b61213581611839565b15612175576040517f08c379a000000000000000000000000000000000000000000000000000000000815260040161216c90613e71565b60405180910390fd5b6121825f838360016120a6565b61218b81611839565b156121cb576040517f08c379a00000000000000000000000000000000000000000000000000000000081526004016121c290613e71565b60405180910390fd5b600160035f8473ffffffffffffffffffffffffffffffffffffffff1673ffffffffffffffffffffffffffffffffffffffff1681526020019081526020015f205f82825401925050819055508160025f8381526020019081526020015f205f6101000a81548173ffffffffffffffffffffffffffffffffffffffff021916908373ffffffffffffffffffffffffffffffffffffffff160217905550808273ffffffffffffffffffffffffffffffffffffffff165f73ffffffffffffffffffffffffffffffffffffffff167fddf252ad1be2c89b69c2b068fc378daa952ba7f163c4a11628f55a4df523b3ef60405160405180910390a46122cd5f838360016120b8565b5050565b5f808273ffffffffffffffffffffffffffffffffffffffff163b119050919050565b6122ff8484848461244e565b6001811115612343576040517f08c379a000000000000000000000000000000000000000000000000000000000815260040161233a90613eff565b60405180910390fd5b5f8290505f73ffffffffffffffffffffffffffffffffffffffff168573ffffffffffffffffffffffffffffffffffffffff16036123885761238381612454565b6123c7565b8373ffffffffffffffffffffffffffffffffffffffff168573ffffffffffffffffffffffffffffffffffffffff16146123c6576123c58582612498565b5b5b5f73ffffffffffffffffffffffffffffffffffffffff168473ffffffffffffffffffffffffffffffffffffffff160361240857612403816125ee565b612447565b8473ffffffffffffffffffffffffffffffffffffffff168473ffffffffffffffffffffffffffffffffffffffff16146124465761244584826126ae565b5b5b5050505050565b50505050565b600980549050600a5f8381526020019081526020015f2081905550600981908060018154018082558091505060019003905f5260205f20015f909190919091505550565b5f60016124a484610bbb565b6124ae9190613005565b90505f60085f8481526020019081526020015f20549050818114612585575f60075f8673ffffffffffffffffffffffffffffffffffffffff1673ffffffffffffffffffffffffffffffffffffffff1681526020019081526020015f205f8481526020019081526020015f205490508060075f8773ffffffffffffffffffffffffffffffffffffffff1673ffffffffffffffffffffffffffffffffffffffff1681526020019081526020015f205f8481526020019081526020015f20819055508160085f8381526020019081526020015f2081905550505b60085f8481526020019081526020015f205f905560075f8573ffffffffffffffffffffffffffffffffffffffff1673ffffffffffffffffffffffffffffffffffffffff1681526020019081526020015f205f8381526020019081526020015f205f905550505050565b5f60016009805490506126019190613005565b90505f600a5f8481526020019081526020015f205490505f6009838154811061262d5761262c6131fd565b5b905f5260205f2001549050806009838154811061264d5761264c6131fd565b5b905f5260205f20018190555081600a5f8381526020019081526020015f2081905550600a5f8581526020019081526020015f205f9055600980548061269557612694613f1d565b5b600190038181905f5260205f20015f9055905550505050565b5f6126b883610bbb565b90508160075f8573ffffffffffffffffffffffffffffffffffffffff1673ffffffffffffffffffffffffffffffffffffffff1681526020019081526020015f205f8381526020019081526020015f20819055508060085f8481526020019081526020015f2081905550505050565b5f604051905090565b5f80fd5b5f80fd5b5f7fffffffff0000000000000000000000000000000000000000000000000000000082169050919050565b61276b81612737565b8114612775575f80fd5b50565b5f8135905061278681612762565b92915050565b5f602082840312156127a1576127a061272f565b5b5f6127ae84828501612778565b91505092915050565b5f8115159050919050565b6127cb816127b7565b82525050565b5f6020820190506127e45f8301846127c2565b92915050565b5f81519050919050565b5f82825260208201905092915050565b5f5b83811015612821578082015181840152602081019050612806565b5f8484015250505050565b5f601f19601f8301169050919050565b5f612846826127ea565b61285081856127f4565b9350612860818560208601612804565b6128698161282c565b840191505092915050565b5f6020820190508181035f83015261288c818461283c565b905092915050565b5f819050919050565b6128a681612894565b81146128b0575f80fd5b50565b5f813590506128c18161289d565b92915050565b5f602082840312156128dc576128db61272f565b5b5f6128e9848285016128b3565b91505092915050565b5f73ffffffffffffffffffffffffffffffffffffffff82169050919050565b5f61291b826128f2565b9050919050565b61292b81612911565b82525050565b5f6020820190506129445f830184612922565b92915050565b61295381612911565b811461295d575f80fd5b50565b5f8135905061296e8161294a565b92915050565b5f806040838503121561298a5761298961272f565b5b5f61299785828601612960565b92505060206129a8858286016128b3565b9150509250929050565b6129bb81612894565b82525050565b5f6020820190506129d45f8301846129b2565b92915050565b5f805f606084860312156129f1576129f061272f565b5b5f6129fe86828701612960565b9350506020612a0f86828701612960565b9250506040612a20868287016128b3565b9150509250925092565b5f60208284031215612a3f57612a3e61272f565b5b5f612a4c84828501612960565b91505092915050565b5f81519050919050565b5f82825260208201905092915050565b5f819050602082019050919050565b612a8781612894565b82525050565b5f612a988383612a7e565b60208301905092915050565b5f602082019050919050565b5f612aba82612a55565b612ac48185612a5f565b9350612acf83612a6f565b805f5b83811015612aff578151612ae68882612a8d565b9750612af183612aa4565b925050600181019050612ad2565b5085935050505092915050565b5f6020820190508181035f830152612b248184612ab0565b905092915050565b5f612b36826128f2565b9050919050565b612b4681612b2c565b82525050565b5f602082019050612b5f5f830184612b3d565b92915050565b5f80fd5b5f80fd5b5f80fd5b5f8083601f840112612b8657612b85612b65565b5b8235905067ffffffffffffffff811115612ba357612ba2612b69565b5b602083019150836001820283011115612bbf57612bbe612b6d565b5b9250929050565b5f8060208385031215612bdc57612bdb61272f565b5b5f83013567ffffffffffffffff811115612bf957612bf8612733565b5b612c0585828601612b71565b92509250509250929050565b612c1a816127b7565b8114612c24575f80fd5b50565b5f81359050612c3581612c11565b92915050565b5f8060408385031215612c5157612c5061272f565b5b5f612c5e85828601612960565b9250506020612c6f85828601612c27565b9150509250929050565b5f80fd5b7f4e487b71000000000000000000000000000000000000000000000000000000005f52604160045260245ffd5b612cb38261282c565b810181811067ffffffffffffffff82111715612cd257612cd1612c7d565b5b80604052505050565b5f612ce4612726565b9050612cf08282612caa565b919050565b5f67ffffffffffffffff821115612d0f57612d0e612c7d565b5b612d188261282c565b9050602081019050919050565b828183375f83830152505050565b5f612d45612d4084612cf5565b612cdb565b905082815260208101848484011115612d6157612d60612c79565b5b612d6c848285612d25565b509392505050565b5f82601f830112612d8857612d87612b65565b5b8135612d98848260208601612d33565b91505092915050565b5f805f8060808587031215612db957612db861272f565b5b5f612dc687828801612960565b9450506020612dd787828801612960565b9350506040612de8878288016128b3565b925050606085013567ffffffffffffffff811115612e0957612e08612733565b5b612e1587828801612d74565b91505092959194509250565b5f8060408385031215612e3757612e3661272f565b5b5f612e4485828601612960565b9250506020612e5585828601612960565b9150509250929050565b7f4e487b71000000000000000000000000000000000000000000000000000000005f52602260045260245ffd5b5f6002820490506001821680612ea357607f821691505b602082108103612eb657612eb5612e5f565b5b50919050565b7f4552433732313a20617070726f76616c20746f2063757272656e74206f776e655f8201527f7200000000000000000000000000000000000000000000000000000000000000602082015250565b5f612f166021836127f4565b9150612f2182612ebc565b604082019050919050565b5f6020820190508181035f830152612f4381612f0a565b9050919050565b7f4552433732313a20617070726f76652063616c6c6572206973206e6f7420746f5f8201527f6b656e206f776e6572206f7220617070726f76656420666f7220616c6c000000602082015250565b5f612fa4603d836127f4565b9150612faf82612f4a565b604082019050919050565b5f6020820190508181035f830152612fd181612f98565b9050919050565b7f4e487b71000000000000000000000000000000000000000000000000000000005f52601160045260245ffd5b5f61300f82612894565b915061301a83612894565b925082820390508181111561303257613031612fd8565b5b92915050565b7f455243373231456e756d657261626c653a206f776e657220696e646578206f755f8201527f74206f6620626f756e6473000000000000000000000000000000000000000000602082015250565b5f613092602b836127f4565b915061309d82613038565b604082019050919050565b5f6020820190508181035f8301526130bf81613086565b9050919050565b5f81905092915050565b50565b5f6130de5f836130c6565b91506130e9826130d0565b5f82019050919050565b5f6130fd826130d3565b9150819050919050565b7f7769746864726177206661696c656400000000000000000000000000000000005f82015250565b5f61313b600f836127f4565b915061314682613107565b602082019050919050565b5f6020820190508181035f8301526131688161312f565b9050919050565b7f455243373231456e756d657261626c653a20676c6f62616c20696e646578206f5f8201527f7574206f6620626f756e64730000000000000000000000000000000000000000602082015250565b5f6131c9602c836127f4565b91506131d48261316f565b604082019050919050565b5f6020820190508181035f8301526131f6816131bd565b9050919050565b7f4e487b71000000000000000000000000000000000000000000000000000000005f52603260045260245ffd5b7f4552433732313a20696e76616c696420746f6b656e20494400000000000000005f82015250565b5f61325e6018836127f4565b91506132698261322a565b602082019050919050565b5f6020820190508181035f83015261328b81613252565b9050919050565b7f4552433732313a2061646472657373207a65726f206973206e6f7420612076615f8201527f6c6964206f776e65720000000000000000000000000000000000000000000000602082015250565b5f6132ec6029836127f4565b91506132f782613292565b604082019050919050565b5f6020820190508181035f830152613319816132e0565b9050919050565b5f61332a82612894565b91507fffffffffffffffffffffffffffffffffffffffffffffffffffffffffffffffff820361335c5761335b612fd8565b5b600182019050919050565b5f82905092915050565b5f819050815f5260205f209050919050565b5f6020601f8301049050919050565b5f82821b905092915050565b5f600883026133cd7fffffffffffffffffffffffffffffffffffffffffffffffffffffffffffffffff82613392565b6133d78683613392565b95508019841693508086168417925050509392505050565b5f819050919050565b5f61341261340d61340884612894565b6133ef565b612894565b9050919050565b5f819050919050565b61342b836133f8565b61343f61343782613419565b84845461339e565b825550505050565b5f90565b613453613447565b61345e818484613422565b505050565b5b81811015613481576134765f8261344b565b600181019050613464565b5050565b601f8211156134c65761349781613371565b6134a084613383565b810160208510156134af578190505b6134c36134bb85613383565b830182613463565b50505b505050565b5f82821c905092915050565b5f6134e65f19846008026134cb565b1980831691505092915050565b5f6134fe83836134d7565b9150826002028217905092915050565b6135188383613367565b67ffffffffffffffff81111561353157613530612c7d565b5b61353b8254612e8c565b613546828285613485565b5f601f831160018114613573575f8415613561578287013590505b61356b85826134f3565b8655506135d2565b601f19841661358186613371565b5f5b828110156135a857848901358255600182019150602085019450602081019050613583565b868310156135c557848901356135c1601f8916826134d7565b8355505b6001600288020188555050505b50505050505050565b5f6135e582612894565b91506135f083612894565b92508282026135fe81612894565b9150828204841483151761361557613614612fd8565b5b5092915050565b7f6e6f7420656e6f756768206d6f6e6579000000000000000000000000000000005f82015250565b5f6136506010836127f4565b915061365b8261361c565b602082019050919050565b5f6020820190508181035f83015261367d81613644565b9050919050565b5f61368e82612894565b915061369983612894565b92508282019050808211156136b1576136b0612fd8565b5b92915050565b7f736f6c64206f75740000000000000000000000000000000000000000000000005f82015250565b5f6136eb6008836127f4565b91506136f6826136b7565b602082019050919050565b5f6020820190508181035f830152613718816136df565b9050919050565b7f657863656564206d61782077616c6c65740000000000000000000000000000005f82015250565b5f6137536011836127f4565b915061375e8261371f565b602082019050919050565b5f6020820190508181035f83015261378081613747565b9050919050565b7f4552433732313a2063616c6c6572206973206e6f7420746f6b656e206f776e655f8201527f72206f7220617070726f76656400000000000000000000000000000000000000602082015250565b5f6137e1602d836127f4565b91506137ec82613787565b604082019050919050565b5f6020820190508181035f83015261380e816137d5565b9050919050565b7f546f6b656e20646f6573206e6f742065786973747300000000000000000000005f82015250565b5f6138496015836127f4565b915061385482613815565b602082019050919050565b5f6020820190508181035f8301526138768161383d565b9050919050565b5f81905092915050565b5f815461389381612e8c565b61389d818661387d565b9450600182165f81146138b757600181146138cc576138fe565b60ff19831686528115158202860193506138fe565b6138d585613371565b5f5b838110156138f6578154818901526001820191506020810190506138d7565b838801955050505b50505092915050565b5f613911826127ea565b61391b818561387d565b935061392b818560208601612804565b80840191505092915050565b7f2e6a736f6e0000000000000000000000000000000000000000000000000000005f82015250565b5f61396b60058361387d565b915061397682613937565b600582019050919050565b5f61398c8285613887565b91506139988284613907565b91506139a38261395f565b91508190509392505050565b7f4f776e61626c653a206e6577206f776e657220697320746865207a65726f20615f8201527f6464726573730000000000000000000000000000000000000000000000000000602082015250565b5f613a096026836127f4565b9150613a14826139af565b604082019050919050565b5f6020820190508181035f830152613a36816139fd565b9050919050565b7f4f776e61626c653a2063616c6c6572206973206e6f7420746865206f776e65725f82015250565b5f613a716020836127f4565b9150613a7c82613a3d565b602082019050919050565b5f6020820190508181035f830152613a9e81613a65565b9050919050565b7f4552433732313a20617070726f766520746f2063616c6c6572000000000000005f82015250565b5f613ad96019836127f4565b9150613ae482613aa5565b602082019050919050565b5f6020820190508181035f830152613b0681613acd565b9050919050565b7f4552433732313a207472616e7366657220746f206e6f6e2045524337323152655f8201527f63656976657220696d706c656d656e7465720000000000000000000000000000602082015250565b5f613b676032836127f4565b9150613b7282613b0d565b604082019050919050565b5f6020820190508181035f830152613b9481613b5b565b9050919050565b7f4e487b71000000000000000000000000000000000000000000000000000000005f52601260045260245ffd5b7f4552433732313a207472616e736665722066726f6d20696e636f7272656374205f8201527f6f776e6572000000000000000000000000000000000000000000000000000000602082015250565b5f613c226025836127f4565b9150613c2d82613bc8565b604082019050919050565b5f6020820190508181035f830152613c4f81613c16565b9050919050565b7f4552433732313a207472616e7366657220746f20746865207a65726f206164645f8201527f7265737300000000000000000000000000000000000000000000000000000000602082015250565b5f613cb06024836127f4565b9150613cbb82613c56565b604082019050919050565b5f6020820190508181035f830152613cdd81613ca4565b9050919050565b5f81519050919050565b5f82825260208201905092915050565b5f613d0882613ce4565b613d128185613cee565b9350613d22818560208601612804565b613d2b8161282c565b840191505092915050565b5f608082019050613d495f830187612922565b613d566020830186612922565b613d6360408301856129b2565b8181036060830152613d758184613cfe565b905095945050505050565b5f81519050613d8e81612762565b92915050565b5f60208284031215613da957613da861272f565b5b5f613db684828501613d80565b91505092915050565b7f4552433732313a206d696e7420746f20746865207a65726f20616464726573735f82015250565b5f613df36020836127f4565b9150613dfe82613dbf565b602082019050919050565b5f6020820190508181035f830152613e2081613de7565b9050919050565b7f4552433732313a20746f6b656e20616c7265616479206d696e746564000000005f82015250565b5f613e5b601c836127f4565b9150613e6682613e27565b602082019050919050565b5f6020820190508181035f830152613e8881613e4f565b9050919050565b7f455243373231456e756d657261626c653a20636f6e73656375746976652074725f8201527f616e7366657273206e6f7420737570706f727465640000000000000000000000602082015250565b5f613ee96035836127f4565b9150613ef482613e8f565b604082019050919050565b5f6020820190508181035f830152613f1681613edd565b9050919050565b7f4e487b71000000000000000000000000000000000000000000000000000000005f52603160045260245ffdfea2646970667358221220088b35b12e2c56226dcef43cda91b0fb47faf81965b6de80bd42e089628d87a164736f6c63430008150033",
  "linkReferences": {},
  "deployedLinkReferences": {}
}